{
  "contractName": "LuckyNum",
  "abi": [
    {
      "inputs": [
        {
          "internalType": "string",
          "name": "name",
          "type": "string"
        }
      ],
      "stateMutability": "payable",
      "type": "constructor"
    },
    {
      "inputs": [],
      "name": "num1",
      "outputs": [
        {
          "internalType": "uint256",
          "name": "",
          "type": "uint256"
        }
      ],
      "stateMutability": "view",
      "type": "function"
    },
    {
      "inputs": [],
      "name": "getNumber",
      "outputs": [
        {
          "internalType": "uint256",
          "name": "",
          "type": "uint256"
        }
      ],
      "stateMutability": "pure",
      "type": "function"
    },
    {
      "inputs": [],
      "name": "getLuckyNumber",
      "outputs": [
        {
          "internalType": "uint256",
          "name": "",
          "type": "uint256"
        }
      ],
      "stateMutability": "view",
      "type": "function"
    },
    {
      "inputs": [],
      "name": "getMessage",
      "outputs": [
        {
          "internalType": "string",
          "name": "",
          "type": "string"
        }
      ],
      "stateMutability": "view",
      "type": "function"
    },
    {
      "inputs": [],
      "name": "addNumber",
      "outputs": [
        {
          "internalType": "uint256",
          "name": "",
          "type": "uint256"
        }
      ],
      "stateMutability": "nonpayable",
      "type": "function"
    }
  ],
  "bytecode": "0x608060405260086001556040516104183803806104188339818101604052602081101561002b57600080fd5b810190808051604051939291908464010000000082111561004b57600080fd5b8382019150602082018581111561006157600080fd5b825186600182028301116401000000008211171561007e57600080fd5b8083526020830192505050908051906020019080838360005b838110156100b2578082015181840152602081019050610097565b50505050905090810190601f1680156100df5780820380516001836020036101000a031916815260200191505b5060405250505080600090805190602001906100fc929190610103565b50506101a0565b828054600181600116156101000203166002900490600052602060002090601f016020900481019282601f1061014457805160ff1916838001178555610172565b82800160010185558215610172579182015b82811115610171578251825591602001919060010190610156565b5b50905061017f9190610183565b5090565b5b8082111561019c576000816000905550600101610184565b5090565b610269806101af6000396000f3fe608060405234801561001057600080fd5b50600436106100575760003560e01c80633b9eac4b1461005c578063ba65a5231461007a578063ce6d41de14610098578063e69f19cd1461011b578063f2c9ecd814610139575b600080fd5b610064610157565b6040518082815260200191505060405180910390f35b61008261015d565b6040518082815260200191505060405180910390f35b6100a0610179565b6040518080602001828103825283818151815260200191508051906020019080838360005b838110156100e05780820151818401526020810190506100c5565b50505050905090810190601f16801561010d5780820380516001836020036101000a031916815260200191505b509250505060405180910390f35b61012361021b565b6040518082815260200191505060405180910390f35b610141610229565b6040518082815260200191505060405180910390f35b60015481565b6000600160008154809291906001019190505550600154905090565b606060008054600181600116156101000203166002900480601f0160208091040260200160405190810160405280929190818152602001828054600181600116156101000203166002900480156102115780601f106101e657610100808354040283529160200191610211565b820191906000526020600020905b8154815290600101906020018083116101f457829003601f168201915b5050505050905090565b600060015460015402905090565b600061027190509056fea264697066735822122094d873582fb4e765f45c441b928039549c2817935dd367cdac8f157a6f4166f164736f6c634300060c0033",
  "immutableReferences": {},
  "source": "// SPDX-License-Identifier: MIT\r\n\r\npragma solidity ^0.6.2;\r\n\r\ncontract LuckyNum{\r\n\r\n    string message;\r\n\r\n    constructor(string memory name) public payable{\r\n        message = name;\r\n    }\r\n\r\n    function getNumber() public pure returns(uint){\r\n        return 25*25;\r\n    }\r\n\r\n    uint public num1 = 8;\r\n\r\n    function getLuckyNumber() public view returns(uint){\r\n        return num1 * num1;\r\n    }\r\n\r\n\r\n    function getMessage() public view returns(string memory){\r\n        return message;\r\n    }\r\n\r\n    function addNumber() public returns(uint){\r\n        num1++;\r\n        return num1;\r\n    }\r\n\r\n\r\n}",
  "sourcePath": "E:\\NFT 6-9\\NFTified 6-9\\src\\contracts\\Luckynum.sol",
  "compiler": {
    "name": "solc",
    "version": "0.6.12+commit.27d51765.Emscripten.clang"
  },
  "schemaVersion": "3.4.5",
  "updatedAt": "2022-07-04T04:26:56.446Z",
  "devdoc": {
    "kind": "dev",
    "methods": {},
    "version": 1
  },
  "userdoc": {
    "kind": "user",
    "methods": {},
    "version": 1
  }
}