{
  "contractName": "LuckyNum2",
  "abi": [
    {
      "constant": true,
      "inputs": [],
      "name": "num2",
      "outputs": [
        {
          "internalType": "uint256",
          "name": "",
          "type": "uint256"
        }
      ],
      "payable": false,
      "stateMutability": "view",
      "type": "function"
    },
    {
      "constant": false,
      "inputs": [],
      "name": "getLuckyNumber",
      "outputs": [
        {
          "internalType": "uint256",
          "name": "",
          "type": "uint256"
        }
      ],
      "payable": false,
      "stateMutability": "nonpayable",
      "type": "function"
    }
  ],
  "bytecode": "0x6080604052600a60005534801561001557600080fd5b5060c5806100246000396000f3fe6080604052348015600f57600080fd5b506004361060325760003560e01c806315d4266c146037578063e69f19cd146053575b600080fd5b603d606f565b6040518082815260200191505060405180910390f35b60596075565b6040518082815260200191505060405180910390f35b60005481565b6000806000815480929190600101919050555060005490509056fea265627a7a7231582047062700da1ce9aa3411c32f9c1ef907460f50a3f067d13101678315774a903f64736f6c63430005110032",
  "source": "pragma solidity ^0.5.0;\r\n\r\ncontract LuckyNum2 {\r\n\r\nuint public num2 = 10;\r\n\r\nfunction getLuckyNumber() public returns(uint){\r\n    num2++;\r\n    return num2;\r\n}\r\n\r\n}",
  "sourcePath": "E:\\Hackathon\\proto1\\defi-staking-app-starter\\Basic Basic Basic Dapp\\src\\contracts\\LuckyNum2.sol",
  "compiler": {
    "name": "solc",
    "version": "0.5.17+commit.d19bba13.Emscripten.clang"
  },
  "schemaVersion": "3.4.5",
  "updatedAt": "2022-03-12T00:41:09.588Z",
  "networkType": "ethereum",
  "devdoc": {
    "methods": {}
  },
  "userdoc": {
    "methods": {}
  }
}