{
  "contractName": "PayLuckyNum",
  "abi": [
    {
      "inputs": [
        {
          "internalType": "string",
          "name": "name",
          "type": "string"
        }
      ],
      "stateMutability": "payable",
      "type": "constructor"
    },
    {
      "inputs": [],
      "name": "num1",
      "outputs": [
        {
          "internalType": "uint256",
          "name": "",
          "type": "uint256"
        }
      ],
      "stateMutability": "view",
      "type": "function"
    },
    {
      "inputs": [],
      "name": "owner",
      "outputs": [
        {
          "internalType": "address",
          "name": "",
          "type": "address"
        }
      ],
      "stateMutability": "view",
      "type": "function"
    },
    {
      "inputs": [],
      "name": "getContractBalance",
      "outputs": [
        {
          "internalType": "uint256",
          "name": "",
          "type": "uint256"
        }
      ],
      "stateMutability": "view",
      "type": "function"
    },
    {
      "inputs": [],
      "name": "getNumber",
      "outputs": [
        {
          "internalType": "uint256",
          "name": "",
          "type": "uint256"
        }
      ],
      "stateMutability": "pure",
      "type": "function"
    },
    {
      "inputs": [],
      "name": "getLuckyNumber",
      "outputs": [
        {
          "internalType": "uint256",
          "name": "",
          "type": "uint256"
        }
      ],
      "stateMutability": "view",
      "type": "function"
    },
    {
      "inputs": [],
      "name": "addNumber",
      "outputs": [
        {
          "internalType": "uint256",
          "name": "",
          "type": "uint256"
        }
      ],
      "stateMutability": "nonpayable",
      "type": "function"
    },
    {
      "inputs": [],
      "name": "getMessage",
      "outputs": [
        {
          "internalType": "string",
          "name": "",
          "type": "string"
        }
      ],
      "stateMutability": "view",
      "type": "function"
    },
    {
      "inputs": [],
      "name": "returnBalance",
      "outputs": [],
      "stateMutability": "nonpayable",
      "type": "function"
    }
  ],
  "bytecode": "0x6080604052600860025560405161061b38038061061b8339818101604052602081101561002b57600080fd5b810190808051604051939291908464010000000082111561004b57600080fd5b8382019150602082018581111561006157600080fd5b825186600182028301116401000000008211171561007e57600080fd5b8083526020830192505050908051906020019080838360005b838110156100b2578082015181840152602081019050610097565b50505050905090810190601f1680156100df5780820380516001836020036101000a031916815260200191505b5060405250505080600190805190602001906100fc929190610143565b50336000806101000a81548173ffffffffffffffffffffffffffffffffffffffff021916908373ffffffffffffffffffffffffffffffffffffffff160217905550506101e0565b828054600181600116156101000203166002900490600052602060002090601f016020900481019282601f1061018457805160ff19168380011785556101b2565b828001600101855582156101b2579182015b828111156101b1578251825591602001919060010190610196565b5b5090506101bf91906101c3565b5090565b5b808211156101dc5760008160009055506001016101c4565b5090565b61042c806101ef6000396000f3fe608060405234801561001057600080fd5b50600436106100885760003560e01c8063ba65a5231161005b578063ba65a52314610107578063ce6d41de14610125578063e69f19cd146101a8578063f2c9ecd8146101c657610088565b80633b9eac4b1461008d5780636f9fb98a146100ab5780638da5cb5b146100c9578063900551a8146100fd575b600080fd5b6100956101e4565b6040518082815260200191505060405180910390f35b6100b36101ea565b6040518082815260200191505060405180910390f35b6100d16101f2565b604051808273ffffffffffffffffffffffffffffffffffffffff16815260200191505060405180910390f35b610105610216565b005b61010f610320565b6040518082815260200191505060405180910390f35b61012d61033c565b6040518080602001828103825283818151815260200191508051906020019080838360005b8381101561016d578082015181840152602081019050610152565b50505050905090810190601f16801561019a5780820380516001836020036101000a031916815260200191505b509250505060405180910390f35b6101b06103de565b6040518082815260200191505060405180910390f35b6101ce6103ec565b6040518082815260200191505060405180910390f35b60025481565b600047905090565b60008054906101000a900473ffffffffffffffffffffffffffffffffffffffff1681565b600047905060003373ffffffffffffffffffffffffffffffffffffffff168260405180807f2000000000000000000000000000000000000000000000000000000000000000815250600101905060006040518083038185875af1925050503d80600081146102a0576040519150601f19603f3d011682016040523d82523d6000602084013e6102a5565b606091505b505090508061031c576040517f08c379a00000000000000000000000000000000000000000000000000000000081526004018080602001828103825260108152602001807f5472616e73666572206661696c65642e0000000000000000000000000000000081525060200191505060405180910390fd5b5050565b6000600260008154809291906001019190505550600254905090565b606060018054600181600116156101000203166002900480601f0160208091040260200160405190810160405280929190818152602001828054600181600116156101000203166002900480156103d45780601f106103a9576101008083540402835291602001916103d4565b820191906000526020600020905b8154815290600101906020018083116103b757829003601f168201915b5050505050905090565b600060025460025402905090565b600061027190509056fea2646970667358221220aa446aa9516a21f6d8c53a0133da473eba70aa924925710c73cc1684880ec6d064736f6c634300060c0033",
  "immutableReferences": {},
  "source": "// SPDX-License-Identifier: MIT\r\n\r\npragma solidity ^0.6.2;\r\n\r\ncontract PayLuckyNum{\r\n\r\n    address public owner;\r\n    string message;\r\n\r\n    constructor(string memory name) public payable{\r\n        message = name;\r\n        owner = msg.sender;\r\n    }\r\n\r\n    function getContractBalance() public view returns(uint){\r\n        return address(this).balance;\r\n    }\r\n\r\n    function getNumber() public pure returns(uint){\r\n        return 25*25;\r\n    }\r\n\r\n    uint public num1 = 8;\r\n\r\n    function getLuckyNumber() public view returns(uint){\r\n        return num1 * num1;\r\n    }\r\n\r\n    function addNumber() public returns(uint){\r\n        num1++;\r\n        return num1;\r\n    }\r\n\r\n     function getMessage() public view returns(string memory){\r\n        return message;\r\n    }\r\n\r\n    function returnBalance() public{\r\n        uint balance = address(this).balance;\r\n        //(bool success, ) = msg.sender.call.value(balance)(\"\");\r\n        (bool success, ) = msg.sender.call{value: balance} (\" \");\r\n        require(success, \"Transfer failed.\");\r\n    }\r\n\r\n}",
  "sourcePath": "E:\\NFT 6-9\\NFTified 6-9\\src\\contracts\\PayableLuckyNum.sol",
  "compiler": {
    "name": "solc",
    "version": "0.6.12+commit.27d51765.Emscripten.clang"
  },
  "schemaVersion": "3.4.5",
  "updatedAt": "2022-07-04T04:26:57.468Z",
  "devdoc": {
    "kind": "dev",
    "methods": {},
    "version": 1
  },
  "userdoc": {
    "kind": "user",
    "methods": {},
    "version": 1
  }
}